{
  "_format": "hh-sol-artifact-1",
  "contractName": "LotteryFactory",
  "sourceName": "contracts/LotteryFactory.sol",
  "abi": [
    {
      "inputs": [],
      "stateMutability": "nonpayable",
      "type": "constructor"
    },
    {
      "inputs": [
        {
          "internalType": "address",
          "name": "owner",
          "type": "address"
        }
      ],
      "name": "OwnableInvalidOwner",
      "type": "error"
    },
    {
      "inputs": [
        {
          "internalType": "address",
          "name": "account",
          "type": "address"
        }
      ],
      "name": "OwnableUnauthorizedAccount",
      "type": "error"
    },
    {
      "anonymous": false,
      "inputs": [
        {
          "indexed": true,
          "internalType": "string",
          "name": "lotteryId",
          "type": "string"
        },
        {
          "indexed": true,
          "internalType": "address",
          "name": "instanceAddress",
          "type": "address"
        },
        {
          "indexed": true,
          "internalType": "address",
          "name": "owner",
          "type": "address"
        }
      ],
      "name": "LotteryInstanceCreated",
      "type": "event"
    },
    {
      "anonymous": false,
      "inputs": [
        {
          "indexed": true,
          "internalType": "address",
          "name": "previousOwner",
          "type": "address"
        },
        {
          "indexed": true,
          "internalType": "address",
          "name": "newOwner",
          "type": "address"
        }
      ],
      "name": "OwnershipTransferred",
      "type": "event"
    },
    {
      "inputs": [
        {
          "internalType": "string",
          "name": "_lotteryId",
          "type": "string"
        },
        {
          "internalType": "string",
          "name": "_lotteryName",
          "type": "string"
        },
        {
          "internalType": "uint256",
          "name": "_entryFee",
          "type": "uint256"
        },
        {
          "internalType": "uint256",
          "name": "_drawTime",
          "type": "uint256"
        }
      ],
      "name": "createLottery",
      "outputs": [],
      "stateMutability": "payable",
      "type": "function"
    },
    {
      "inputs": [],
      "name": "getAllLotteryIds",
      "outputs": [
        {
          "internalType": "string[]",
          "name": "",
          "type": "string[]"
        }
      ],
      "stateMutability": "view",
      "type": "function"
    },
    {
      "inputs": [
        {
          "internalType": "string",
          "name": "_lotteryId",
          "type": "string"
        }
      ],
      "name": "getLotteryInstanceAddress",
      "outputs": [
        {
          "internalType": "address",
          "name": "",
          "type": "address"
        }
      ],
      "stateMutability": "view",
      "type": "function"
    },
    {
      "inputs": [
        {
          "internalType": "uint256",
          "name": "",
          "type": "uint256"
        }
      ],
      "name": "lotteryIds",
      "outputs": [
        {
          "internalType": "string",
          "name": "",
          "type": "string"
        }
      ],
      "stateMutability": "view",
      "type": "function"
    },
    {
      "inputs": [
        {
          "internalType": "string",
          "name": "",
          "type": "string"
        }
      ],
      "name": "lotteryInstances",
      "outputs": [
        {
          "internalType": "address",
          "name": "",
          "type": "address"
        }
      ],
      "stateMutability": "view",
      "type": "function"
    },
    {
      "inputs": [],
      "name": "owner",
      "outputs": [
        {
          "internalType": "address",
          "name": "",
          "type": "address"
        }
      ],
      "stateMutability": "view",
      "type": "function"
    },
    {
      "inputs": [],
      "name": "renounceOwnership",
      "outputs": [],
      "stateMutability": "nonpayable",
      "type": "function"
    },
    {
      "inputs": [
        {
          "internalType": "address",
          "name": "newOwner",
          "type": "address"
        }
      ],
      "name": "transferOwnership",
      "outputs": [],
      "stateMutability": "nonpayable",
      "type": "function"
    }
  ],
  "bytecode": "0x608060405234801561001057600080fd5b5033600073ffffffffffffffffffffffffffffffffffffffff168173ffffffffffffffffffffffffffffffffffffffff16036100845760006040517f1e4fbdf700000000000000000000000000000000000000000000000000000000815260040161007b919061019e565b60405180910390fd5b6100938161009960201b60201c565b506101b9565b60008060009054906101000a900473ffffffffffffffffffffffffffffffffffffffff169050816000806101000a81548173ffffffffffffffffffffffffffffffffffffffff021916908373ffffffffffffffffffffffffffffffffffffffff1602179055508173ffffffffffffffffffffffffffffffffffffffff168173ffffffffffffffffffffffffffffffffffffffff167f8be0079c531659141344cd1fd0a4f28419497f9722a3daafe3b4186f6b6457e060405160405180910390a35050565b600073ffffffffffffffffffffffffffffffffffffffff82169050919050565b60006101888261015d565b9050919050565b6101988161017d565b82525050565b60006020820190506101b3600083018461018f565b92915050565b614540806101c86000396000f3fe60806040526004361061007b5760003560e01c80638da5cb5b1161004e5780638da5cb5b1461011b578063b3ce0ce514610146578063c9c628ab14610183578063f2fde38b146101c05761007b565b806356e7d93c146100805780636cc699971461009c5780636e1d6b8e146100c7578063715018a614610104575b600080fd5b61009a60048036038101906100959190610a30565b6101e9565b005b3480156100a857600080fd5b506100b1610467565b6040516100be9190610c10565b60405180910390f35b3480156100d357600080fd5b506100ee60048036038101906100e99190610c32565b610540565b6040516100fb9190610cbc565b60405180910390f35b34801561011057600080fd5b50610119610588565b005b34801561012757600080fd5b5061013061059c565b60405161013d9190610cbc565b60405180910390f35b34801561015257600080fd5b5061016d60048036038101906101689190610c32565b6105c5565b60405161017a9190610cbc565b60405180910390f35b34801561018f57600080fd5b506101aa60048036038101906101a59190610cd7565b61060e565b6040516101b79190610d4e565b60405180910390f35b3480156101cc57600080fd5b506101e760048036038101906101e29190610d9c565b6106ba565b005b600073ffffffffffffffffffffffffffffffffffffffff166001856040516102119190610e05565b908152602001604051809103902060009054906101000a900473ffffffffffffffffffffffffffffffffffffffff1673ffffffffffffffffffffffffffffffffffffffff1614610296576040517f08c379a000000000000000000000000000000000000000000000000000000000815260040161028d90610e68565b60405180910390fd5b4281116102d8576040517f08c379a00000000000000000000000000000000000000000000000000000000081526004016102cf90610ed4565b60405180910390fd5b600082101561031c576040517f08c379a000000000000000000000000000000000000000000000000000000000815260040161031390610f40565b60405180910390fd5b600034858585853360405161033090610893565b61033e959493929190610f6f565b6040518091039082f090508015801561035b573d6000803e3d6000fd5b5090508060018660405161036f9190610e05565b908152602001604051809103902060006101000a81548173ffffffffffffffffffffffffffffffffffffffff021916908373ffffffffffffffffffffffffffffffffffffffff1602179055506002859080600181540180825580915050600190039060005260206000200160009091909190915090816103ef91906111dc565b503373ffffffffffffffffffffffffffffffffffffffff168173ffffffffffffffffffffffffffffffffffffffff168660405161042c9190610e05565b60405180910390207f91042f5cc5dd3ed76d1acc1b8406718fd9f794c03e6190fe079970e76b6a857160405160405180910390a45050505050565b60606002805480602002602001604051908101604052809291908181526020016000905b828210156105375783829060005260206000200180546104aa90610fff565b80601f01602080910402602001604051908101604052809291908181526020018280546104d690610fff565b80156105235780601f106104f857610100808354040283529160200191610523565b820191906000526020600020905b81548152906001019060200180831161050657829003601f168201915b50505050508152602001906001019061048b565b50505050905090565b60006001826040516105529190610e05565b908152602001604051809103902060009054906101000a900473ffffffffffffffffffffffffffffffffffffffff169050919050565b610590610740565b61059a60006107c7565b565b60008060009054906101000a900473ffffffffffffffffffffffffffffffffffffffff16905090565b6001818051602081018201805184825260208301602085012081835280955050505050506000915054906101000a900473ffffffffffffffffffffffffffffffffffffffff1681565b6002818154811061061e57600080fd5b90600052602060002001600091509050805461063990610fff565b80601f016020809104026020016040519081016040528092919081815260200182805461066590610fff565b80156106b25780601f10610687576101008083540402835291602001916106b2565b820191906000526020600020905b81548152906001019060200180831161069557829003601f168201915b505050505081565b6106c2610740565b600073ffffffffffffffffffffffffffffffffffffffff168173ffffffffffffffffffffffffffffffffffffffff16036107345760006040517f1e4fbdf700000000000000000000000000000000000000000000000000000000815260040161072b9190610cbc565b60405180910390fd5b61073d816107c7565b50565b61074861088b565b73ffffffffffffffffffffffffffffffffffffffff1661076661059c565b73ffffffffffffffffffffffffffffffffffffffff16146107c55761078961088b565b6040517f118cdaa70000000000000000000000000000000000000000000000000000000081526004016107bc9190610cbc565b60405180910390fd5b565b60008060009054906101000a900473ffffffffffffffffffffffffffffffffffffffff169050816000806101000a81548173ffffffffffffffffffffffffffffffffffffffff021916908373ffffffffffffffffffffffffffffffffffffffff1602179055508173ffffffffffffffffffffffffffffffffffffffff168173ffffffffffffffffffffffffffffffffffffffff167f8be0079c531659141344cd1fd0a4f28419497f9722a3daafe3b4186f6b6457e060405160405180910390a35050565b600033905090565b61325c806112af83390190565b6000604051905090565b600080fd5b600080fd5b600080fd5b600080fd5b6000601f19601f8301169050919050565b7f4e487b7100000000000000000000000000000000000000000000000000000000600052604160045260246000fd5b610907826108be565b810181811067ffffffffffffffff82111715610926576109256108cf565b5b80604052505050565b60006109396108a0565b905061094582826108fe565b919050565b600067ffffffffffffffff821115610965576109646108cf565b5b61096e826108be565b9050602081019050919050565b82818337600083830152505050565b600061099d6109988461094a565b61092f565b9050828152602081018484840111156109b9576109b86108b9565b5b6109c484828561097b565b509392505050565b600082601f8301126109e1576109e06108b4565b5b81356109f184826020860161098a565b91505092915050565b6000819050919050565b610a0d816109fa565b8114610a1857600080fd5b50565b600081359050610a2a81610a04565b92915050565b60008060008060808587031215610a4a57610a496108aa565b5b600085013567ffffffffffffffff811115610a6857610a676108af565b5b610a74878288016109cc565b945050602085013567ffffffffffffffff811115610a9557610a946108af565b5b610aa1878288016109cc565b9350506040610ab287828801610a1b565b9250506060610ac387828801610a1b565b91505092959194509250565b600081519050919050565b600082825260208201905092915050565b6000819050602082019050919050565b600081519050919050565b600082825260208201905092915050565b60005b83811015610b35578082015181840152602081019050610b1a565b60008484015250505050565b6000610b4c82610afb565b610b568185610b06565b9350610b66818560208601610b17565b610b6f816108be565b840191505092915050565b6000610b868383610b41565b905092915050565b6000602082019050919050565b6000610ba682610acf565b610bb08185610ada565b935083602082028501610bc285610aeb565b8060005b85811015610bfe5784840389528151610bdf8582610b7a565b9450610bea83610b8e565b925060208a01995050600181019050610bc6565b50829750879550505050505092915050565b60006020820190508181036000830152610c2a8184610b9b565b905092915050565b600060208284031215610c4857610c476108aa565b5b600082013567ffffffffffffffff811115610c6657610c656108af565b5b610c72848285016109cc565b91505092915050565b600073ffffffffffffffffffffffffffffffffffffffff82169050919050565b6000610ca682610c7b565b9050919050565b610cb681610c9b565b82525050565b6000602082019050610cd16000830184610cad565b92915050565b600060208284031215610ced57610cec6108aa565b5b6000610cfb84828501610a1b565b91505092915050565b600082825260208201905092915050565b6000610d2082610afb565b610d2a8185610d04565b9350610d3a818560208601610b17565b610d43816108be565b840191505092915050565b60006020820190508181036000830152610d688184610d15565b905092915050565b610d7981610c9b565b8114610d8457600080fd5b50565b600081359050610d9681610d70565b92915050565b600060208284031215610db257610db16108aa565b5b6000610dc084828501610d87565b91505092915050565b600081905092915050565b6000610ddf82610afb565b610de98185610dc9565b9350610df9818560208601610b17565b80840191505092915050565b6000610e118284610dd4565b915081905092915050565b7fe68abde5a59620494420e5b7b2e8a2abe4bdbfe794a800000000000000000000600082015250565b6000610e52601683610d04565b9150610e5d82610e1c565b602082019050919050565b60006020820190508181036000830152610e8181610e45565b9050919050565b7fe5bc80e5a596e697b6e997b4e5bf85e9a1bbe59ca8e69caae69da50000000000600082015250565b6000610ebe601b83610d04565b9150610ec982610e88565b602082019050919050565b60006020820190508181036000830152610eed81610eb1565b9050919050565b7fe585a5e59cbae8b4b9e4b88de883bde4b8bae8b49fe695b00000000000000000600082015250565b6000610f2a601883610d04565b9150610f3582610ef4565b602082019050919050565b60006020820190508181036000830152610f5981610f1d565b9050919050565b610f69816109fa565b82525050565b600060a0820190508181036000830152610f898188610d15565b90508181036020830152610f9d8187610d15565b9050610fac6040830186610f60565b610fb96060830185610f60565b610fc66080830184610cad565b9695505050505050565b7f4e487b7100000000000000000000000000000000000000000000000000000000600052602260045260246000fd5b6000600282049050600182168061101757607f821691505b60208210810361102a57611029610fd0565b5b50919050565b60008190508160005260206000209050919050565b60006020601f8301049050919050565b600082821b905092915050565b6000600883026110927fffffffffffffffffffffffffffffffffffffffffffffffffffffffffffffffff82611055565b61109c8683611055565b95508019841693508086168417925050509392505050565b6000819050919050565b60006110d96110d46110cf846109fa565b6110b4565b6109fa565b9050919050565b6000819050919050565b6110f3836110be565b6111076110ff826110e0565b848454611062565b825550505050565b600090565b61111c61110f565b6111278184846110ea565b505050565b5b8181101561114b57611140600082611114565b60018101905061112d565b5050565b601f8211156111905761116181611030565b61116a84611045565b81016020851015611179578190505b61118d61118585611045565b83018261112c565b50505b505050565b600082821c905092915050565b60006111b360001984600802611195565b1980831691505092915050565b60006111cc83836111a2565b9150826002028217905092915050565b6111e582610afb565b67ffffffffffffffff8111156111fe576111fd6108cf565b5b6112088254610fff565b61121382828561114f565b600060209050601f8311600181146112465760008415611234578287015190505b61123e85826111c0565b8655506112a6565b601f19841661125486611030565b60005b8281101561127c57848901518255600182019150602085019450602081019050611257565b868310156112995784890151611295601f8916826111a2565b8355505b6001600288020188555050505b50505050505056fe608060405260405161325c38038061325c833981810160405281019061002591906104f2565b80600073ffffffffffffffffffffffffffffffffffffffff168173ffffffffffffffffffffffffffffffffffffffff16036100985760006040517f1e4fbdf700000000000000000000000000000000000000000000000000000000815260040161008f91906105b4565b60405180910390fd5b6100a78161022560201b60201c565b504282116100ea576040517f08c379a00000000000000000000000000000000000000000000000000000000081526004016100e19061062c565b60405180910390fd5b84600190816100f99190610863565b5083600290816101099190610863565b5082600381905550816009819055506000600b60016101000a81548160ff0219169083600381111561013e5761013d610935565b5b0217905550346006819055506000600b60006101000a81548160ff0219169083151502179055508073ffffffffffffffffffffffffffffffffffffffff168560405161018a91906109a0565b60405180910390207f09b01cca52945b4bbf43b464de9abfc8c99492e590ebb0133727a6dc7d225f4a8686866040516101c5939291906109ff565b60405180910390a3846040516101db91906109a0565b60405180910390207f6c532347b92eb8567b91ea89b73bb409279dc66588e272b625ee3e379ca33d5560006040516102139190610a85565b60405180910390a25050505050610aa0565b60008060009054906101000a900473ffffffffffffffffffffffffffffffffffffffff169050816000806101000a81548173ffffffffffffffffffffffffffffffffffffffff021916908373ffffffffffffffffffffffffffffffffffffffff1602179055508173ffffffffffffffffffffffffffffffffffffffff168173ffffffffffffffffffffffffffffffffffffffff167f8be0079c531659141344cd1fd0a4f28419497f9722a3daafe3b4186f6b6457e060405160405180910390a35050565b6000604051905090565b600080fd5b600080fd5b600080fd5b600080fd5b6000601f19601f8301169050919050565b7f4e487b7100000000000000000000000000000000000000000000000000000000600052604160045260246000fd5b61035082610307565b810181811067ffffffffffffffff8211171561036f5761036e610318565b5b80604052505050565b60006103826102e9565b905061038e8282610347565b919050565b600067ffffffffffffffff8211156103ae576103ad610318565b5b6103b782610307565b9050602081019050919050565b60005b838110156103e25780820151818401526020810190506103c7565b60008484015250505050565b60006104016103fc84610393565b610378565b90508281526020810184848401111561041d5761041c610302565b5b6104288482856103c4565b509392505050565b600082601f830112610445576104446102fd565b5b81516104558482602086016103ee565b91505092915050565b6000819050919050565b6104718161045e565b811461047c57600080fd5b50565b60008151905061048e81610468565b92915050565b600073ffffffffffffffffffffffffffffffffffffffff82169050919050565b60006104bf82610494565b9050919050565b6104cf816104b4565b81146104da57600080fd5b50565b6000815190506104ec816104c6565b92915050565b600080600080600060a0868803121561050e5761050d6102f3565b5b600086015167ffffffffffffffff81111561052c5761052b6102f8565b5b61053888828901610430565b955050602086015167ffffffffffffffff811115610559576105586102f8565b5b61056588828901610430565b94505060406105768882890161047f565b93505060606105878882890161047f565b9250506080610598888289016104dd565b9150509295509295909350565b6105ae816104b4565b82525050565b60006020820190506105c960008301846105a5565b92915050565b600082825260208201905092915050565b7fe5bc80e5a596e697b6e997b4e5bf85e9a1bbe59ca8e69caae69da50000000000600082015250565b6000610616601b836105cf565b9150610621826105e0565b602082019050919050565b6000602082019050818103600083015261064581610609565b9050919050565b600081519050919050565b7f4e487b7100000000000000000000000000000000000000000000000000000000600052602260045260246000fd5b6000600282049050600182168061069e57607f821691505b6020821081036106b1576106b0610657565b5b50919050565b60008190508160005260206000209050919050565b60006020601f8301049050919050565b600082821b905092915050565b6000600883026107197fffffffffffffffffffffffffffffffffffffffffffffffffffffffffffffffff826106dc565b61072386836106dc565b95508019841693508086168417925050509392505050565b6000819050919050565b600061076061075b6107568461045e565b61073b565b61045e565b9050919050565b6000819050919050565b61077a83610745565b61078e61078682610767565b8484546106e9565b825550505050565b600090565b6107a3610796565b6107ae818484610771565b505050565b5b818110156107d2576107c760008261079b565b6001810190506107b4565b5050565b601f821115610817576107e8816106b7565b6107f1846106cc565b81016020851015610800578190505b61081461080c856106cc565b8301826107b3565b50505b505050565b600082821c905092915050565b600061083a6000198460080261081c565b1980831691505092915050565b60006108538383610829565b9150826002028217905092915050565b61086c8261064c565b67ffffffffffffffff81111561088557610884610318565b5b61088f8254610686565b61089a8282856107d6565b600060209050601f8311600181146108cd57600084156108bb578287015190505b6108c58582610847565b86555061092d565b601f1984166108db866106b7565b60005b82811015610903578489015182556001820191506020850194506020810190506108de565b86831015610920578489015161091c601f891682610829565b8355505b6001600288020188555050505b505050505050565b7f4e487b7100000000000000000000000000000000000000000000000000000000600052602160045260246000fd5b600081905092915050565b600061097a8261064c565b6109848185610964565b93506109948185602086016103c4565b80840191505092915050565b60006109ac828461096f565b915081905092915050565b60006109c28261064c565b6109cc81856105cf565b93506109dc8185602086016103c4565b6109e581610307565b840191505092915050565b6109f98161045e565b82525050565b60006060820190508181036000830152610a1981866109b7565b9050610a2860208301856109f0565b610a3560408301846109f0565b949350505050565b60048110610a4e57610a4d610935565b5b50565b6000819050610a5f82610a3d565b919050565b6000610a6f82610a51565b9050919050565b610a7f81610a64565b82525050565b6000602082019050610a9a6000830184610a76565b92915050565b6127ad80610aaf6000396000f3fe6080604052600436106101a05760003560e01c8063719ce73e116100ec578063b4fb3ee31161008a578063dfbf53ae11610064578063dfbf53ae14610540578063e580f47b1461056b578063e97dcb6214610596578063f2fde38b146105a0576101a7565b8063b4fb3ee3146104c1578063b7a8807c146104fe578063d337616e14610529576101a7565b80638da5cb5b116100c65780638da5cb5b1461042b5780638e7ea5b214610456578063997e84d214610481578063b2185bb1146104aa576101a7565b8063719ce73e146103cb57806377c93662146103f6578063884bf67c14610400576101a7565b80633cc82e091161015957806361aa85771161013357806361aa8577146103475780636b68c03c1461037257806370740ac91461039d578063715018a6146103b4576101a7565b80633cc82e09146102c65780634b6753bc146102f15780635aa68ac01461031c576101a7565b8063072ea61c146101ac57806323d14149146101d757806324ac60a71461020257806327a360d11461022d57806335c1d3491461025e5780633c2bcadc1461029b576101a7565b366101a757005b600080fd5b3480156101b857600080fd5b506101c16105c9565b6040516101ce9190611915565b60405180910390f35b3480156101e357600080fd5b506101ec6105cf565b6040516101f991906119c0565b60405180910390f35b34801561020e57600080fd5b5061021761065d565b6040516102249190611915565b60405180910390f35b34801561023957600080fd5b50610242610663565b6040516102559796959493929190611a9a565b60405180910390f35b34801561026a57600080fd5b5061028560048036038101906102809190611b41565b6106c8565b6040516102929190611b6e565b60405180910390f35b3480156102a757600080fd5b506102b0610707565b6040516102bd9190611ba4565b60405180910390f35b3480156102d257600080fd5b506102db61071a565b6040516102e89190611ba4565b60405180910390f35b3480156102fd57600080fd5b50610306610790565b6040516103139190611915565b60405180910390f35b34801561032857600080fd5b50610331610796565b60405161033e9190611c7d565b60405180910390f35b34801561035357600080fd5b5061035c610824565b6040516103699190611c9f565b60405180910390f35b34801561037e57600080fd5b50610387610837565b6040516103949190611c9f565b60405180910390f35b3480156103a957600080fd5b506103b261084e565b005b3480156103c057600080fd5b506103c9610b2c565b005b3480156103d757600080fd5b506103e0610b40565b6040516103ed9190611915565b60405180910390f35b6103fe610b46565b005b34801561040c57600080fd5b50610415610c68565b6040516104229190611915565b60405180910390f35b34801561043757600080fd5b50610440610c70565b60405161044d9190611b6e565b60405180910390f35b34801561046257600080fd5b5061046b610c99565b6040516104789190611b6e565b60405180910390f35b34801561048d57600080fd5b506104a860048036038101906104a39190611b41565b610cc3565b005b3480156104b657600080fd5b506104bf610dce565b005b3480156104cd57600080fd5b506104e860048036038101906104e39190611ce6565b610e93565b6040516104f59190611ba4565b60405180910390f35b34801561050a57600080fd5b50610513610eb3565b6040516105209190611915565b60405180910390f35b34801561053557600080fd5b5061053e610eb9565b005b34801561054c57600080fd5b5061055561104e565b6040516105629190611b6e565b60405180910390f35b34801561057757600080fd5b50610580611074565b60405161058d91906119c0565b60405180910390f35b61059e611102565b005b3480156105ac57600080fd5b506105c760048036038101906105c29190611ce6565b6113ea565b005b60035481565b600280546105dc90611d42565b80601f016020809104026020016040519081016040528092919081815260200182805461060890611d42565b80156106555780601f1061062a57610100808354040283529160200191610655565b820191906000526020600020905b81548152906001019060200180831161063857829003601f168201915b505050505081565b60095481565b606060008060008060008086610677610c70565b60035460095447600b60019054906101000a900460ff16600560009054906101000a900473ffffffffffffffffffffffffffffffffffffffff16965096509650965096509650965090919293949596565b600481815481106106d857600080fd5b906000526020600020016000915054906101000a900473ffffffffffffffffffffffffffffffffffffffff1681565b600b60009054906101000a900460ff1681565b6000600954421015801561076157506000600381111561073d5761073c611a23565b5b600b60019054906101000a900460ff16600381111561075f5761075e611a23565b5b145b801561077a5750600b60009054906101000a900460ff16155b801561078b57506000600480549050115b905090565b60085481565b6060600480548060200260200160405190810160405280929190818152602001828054801561081a57602002820191906000526020600020905b8160009054906101000a900473ffffffffffffffffffffffffffffffffffffffff1673ffffffffffffffffffffffffffffffffffffffff16815260200190600101908083116107d0575b5050505050905090565b600b60019054906101000a900460ff1681565b6000600b60019054906101000a900460ff16905090565b600560009054906101000a900473ffffffffffffffffffffffffffffffffffffffff1673ffffffffffffffffffffffffffffffffffffffff163373ffffffffffffffffffffffffffffffffffffffff16146108de576040517f08c379a00000000000000000000000000000000000000000000000000000000081526004016108d590611de5565b60405180910390fd5b600260038111156108f2576108f1611a23565b5b600b60019054906101000a900460ff16600381111561091457610913611a23565b5b14610954576040517f08c379a000000000000000000000000000000000000000000000000000000000815260040161094b90611e51565b60405180910390fd5b60004790506000600560009054906101000a900473ffffffffffffffffffffffffffffffffffffffff1673ffffffffffffffffffffffffffffffffffffffff16826040516109a190611ea2565b60006040518083038185875af1925050503d80600081146109de576040519150601f19603f3d011682016040523d82523d6000602084013e6109e3565b606091505b5050905080610a27576040517f08c379a0000000000000000000000000000000000000000000000000000000008152600401610a1e90611f03565b60405180910390fd5b600560009054906101000a900473ffffffffffffffffffffffffffffffffffffffff1673ffffffffffffffffffffffffffffffffffffffff166001604051610a6f9190611fc6565b60405180910390207f314c5e9b289951079edff32c7d5735269c32d107a251b34ea3da6060161bcfd584604051610aa69190611915565b60405180910390a36003600b60016101000a81548160ff02191690836003811115610ad457610ad3611a23565b5b02179055506001604051610ae89190611fc6565b60405180910390207f6c532347b92eb8567b91ea89b73bb409279dc66588e272b625ee3e379ca33d556003604051610b209190611c9f565b60405180910390a25050565b610b34611470565b610b3e60006114f7565b565b60065481565b60006003811115610b5a57610b59611a23565b5b600b60019054906101000a900460ff166003811115610b7c57610b7b611a23565b5b14610bbc576040517f08c379a0000000000000000000000000000000000000000000000000000000008152600401610bb390612029565b60405180910390fd5b60003411610bff576040517f08c379a0000000000000000000000000000000000000000000000000000000008152600401610bf690612095565b60405180910390fd5b3460066000828254610c1191906120e4565b925050819055503373ffffffffffffffffffffffffffffffffffffffff167ffba3c75d10f19ac8e142f2fdbd31f710f2ce37cfc6d97ee5817232b2c0ef237434604051610c5e9190611915565b60405180910390a2565b600047905090565b60008060009054906101000a900473ffffffffffffffffffffffffffffffffffffffff16905090565b6000600560009054906101000a900473ffffffffffffffffffffffffffffffffffffffff16905090565b610ccb611470565b60006003811115610cdf57610cde611a23565b5b600b60019054906101000a900460ff166003811115610d0157610d00611a23565b5b14610d41576040517f08c379a0000000000000000000000000000000000000000000000000000000008152600401610d3890612164565b60405180910390fd5b428111610d83576040517f08c379a0000000000000000000000000000000000000000000000000000000008152600401610d7a906121d0565b60405180910390fd5b60006009549050816009819055507f35b82d186bef44e13f467c33c62659dc70c92786f658fd5f57d91aef06be8f968183604051610dc29291906121f0565b60405180910390a15050565b600954421015610e13576040517f08c379a0000000000000000000000000000000000000000000000000000000008152600401610e0a9061228b565b60405180910390fd5b60006003811115610e2757610e26611a23565b5b600b60019054906101000a900460ff166003811115610e4957610e48611a23565b5b14610e89576040517f08c379a0000000000000000000000000000000000000000000000000000000008152600401610e80906122f7565b60405180910390fd5b610e916115bb565b565b600a6020528060005260406000206000915054906101000a900460ff1681565b60075481565b610ec1611470565b600380811115610ed457610ed3611a23565b5b600b60019054906101000a900460ff166003811115610ef657610ef5611a23565b5b14610f36576040517f08c379a0000000000000000000000000000000000000000000000000000000008152600401610f2d90612363565b60405180910390fd5b60005b600480549050811015610fe057600a600060048381548110610f5e57610f5d612383565b5b9060005260206000200160009054906101000a900473ffffffffffffffffffffffffffffffffffffffff1673ffffffffffffffffffffffffffffffffffffffff1673ffffffffffffffffffffffffffffffffffffffff16815260200190815260200160002060006101000a81549060ff02191690558080600101915050610f39565b5060046000610fef91906118be565b6000600560006101000a81548173ffffffffffffffffffffffffffffffffffffffff021916908373ffffffffffffffffffffffffffffffffffffffff1602179055506000600b60006101000a81548160ff021916908315150217905550565b600560009054906101000a900473ffffffffffffffffffffffffffffffffffffffff1681565b6001805461108190611d42565b80601f01602080910402602001604051908101604052809291908181526020018280546110ad90611d42565b80156110fa5780601f106110cf576101008083540402835291602001916110fa565b820191906000526020600020905b8154815290600101906020018083116110dd57829003601f168201915b505050505081565b6000600381111561111657611115611a23565b5b600b60019054906101000a900460ff16600381111561113857611137611a23565b5b14611178576040517f08c379a000000000000000000000000000000000000000000000000000000000815260040161116f906123fe565b60405180910390fd5b60095442106111bc576040517f08c379a00000000000000000000000000000000000000000000000000000000081526004016111b390612490565b60405180910390fd5b6003543414611200576040517f08c379a00000000000000000000000000000000000000000000000000000000081526004016111f7906124fc565b60405180910390fd5b600a60003373ffffffffffffffffffffffffffffffffffffffff1673ffffffffffffffffffffffffffffffffffffffff16815260200190815260200160002060009054906101000a900460ff161561128d576040517f08c379a000000000000000000000000000000000000000000000000000000000815260040161128490612568565b60405180910390fd5b6001600a60003373ffffffffffffffffffffffffffffffffffffffff1673ffffffffffffffffffffffffffffffffffffffff16815260200190815260200160002060006101000a81548160ff0219169083151502179055506004339080600181540180825580915050600190039060005260206000200160009091909190916101000a81548173ffffffffffffffffffffffffffffffffffffffff021916908373ffffffffffffffffffffffffffffffffffffffff160217905550346006600082825461135a91906120e4565b925050819055503373ffffffffffffffffffffffffffffffffffffffff1660016040516113879190611fc6565b60405180910390207fd98357f837e8c4e2ebe60e48ae9f24044635751d42893cc1b5a985ad79f3be9f60405160405180910390a360095442101580156113da5750600b60009054906101000a900460ff16155b156113e8576113e76115bb565b5b565b6113f2611470565b600073ffffffffffffffffffffffffffffffffffffffff168173ffffffffffffffffffffffffffffffffffffffff16036114645760006040517f1e4fbdf700000000000000000000000000000000000000000000000000000000815260040161145b9190611b6e565b60405180910390fd5b61146d816114f7565b50565b6114786118b6565b73ffffffffffffffffffffffffffffffffffffffff16611496610c70565b73ffffffffffffffffffffffffffffffffffffffff16146114f5576114b96118b6565b6040517f118cdaa70000000000000000000000000000000000000000000000000000000081526004016114ec9190611b6e565b60405180910390fd5b565b60008060009054906101000a900473ffffffffffffffffffffffffffffffffffffffff169050816000806101000a81548173ffffffffffffffffffffffffffffffffffffffff021916908373ffffffffffffffffffffffffffffffffffffffff1602179055508173ffffffffffffffffffffffffffffffffffffffff168173ffffffffffffffffffffffffffffffffffffffff167f8be0079c531659141344cd1fd0a4f28419497f9722a3daafe3b4186f6b6457e060405160405180910390a35050565b600b60009054906101000a900460ff161561160b576040517f08c379a0000000000000000000000000000000000000000000000000000000008152600401611602906125d4565b60405180910390fd5b600060048054905011611653576040517f08c379a000000000000000000000000000000000000000000000000000000000815260040161164a90612640565b60405180910390fd5b6001600b60016101000a81548160ff0219169083600381111561167957611678611a23565b5b0217905550600160405161168d9190611fc6565b60405180910390207f6c532347b92eb8567b91ea89b73bb409279dc66588e272b625ee3e379ca33d5560016040516116c59190611c9f565b60405180910390a260006004805490504244600480549050336040516020016116f194939291906126c9565b6040516020818303038152906040528051906020012060001c6117149190612746565b90506004818154811061172a57611729612383565b5b9060005260206000200160009054906101000a900473ffffffffffffffffffffffffffffffffffffffff16600560006101000a81548173ffffffffffffffffffffffffffffffffffffffff021916908373ffffffffffffffffffffffffffffffffffffffff1602179055506001600b60006101000a81548160ff021916908315150217905550600560009054906101000a900473ffffffffffffffffffffffffffffffffffffffff1673ffffffffffffffffffffffffffffffffffffffff1660016040516117f89190611fc6565b60405180910390207f3908bf456fbdc97b7f7f7c4842166b5eacaf5abdbb59e6b9062ba7052970e51f6006546040516118319190611915565b60405180910390a36002600b60016101000a81548160ff0219169083600381111561185f5761185e611a23565b5b021790555060016040516118739190611fc6565b60405180910390207f6c532347b92eb8567b91ea89b73bb409279dc66588e272b625ee3e379ca33d5560026040516118ab9190611c9f565b60405180910390a250565b600033905090565b50805460008255906000526020600020908101906118dc91906118df565b50565b5b808211156118f85760008160009055506001016118e0565b5090565b6000819050919050565b61190f816118fc565b82525050565b600060208201905061192a6000830184611906565b92915050565b600081519050919050565b600082825260208201905092915050565b60005b8381101561196a57808201518184015260208101905061194f565b60008484015250505050565b6000601f19601f8301169050919050565b600061199282611930565b61199c818561193b565b93506119ac81856020860161194c565b6119b581611976565b840191505092915050565b600060208201905081810360008301526119da8184611987565b905092915050565b600073ffffffffffffffffffffffffffffffffffffffff82169050919050565b6000611a0d826119e2565b9050919050565b611a1d81611a02565b82525050565b7f4e487b7100000000000000000000000000000000000000000000000000000000600052602160045260246000fd5b60048110611a6357611a62611a23565b5b50565b6000819050611a7482611a52565b919050565b6000611a8482611a66565b9050919050565b611a9481611a79565b82525050565b600060e0820190508181036000830152611ab4818a611987565b9050611ac36020830189611a14565b611ad06040830188611906565b611add6060830187611906565b611aea6080830186611906565b611af760a0830185611a8b565b611b0460c0830184611a14565b98975050505050505050565b600080fd5b611b1e816118fc565b8114611b2957600080fd5b50565b600081359050611b3b81611b15565b92915050565b600060208284031215611b5757611b56611b10565b5b6000611b6584828501611b2c565b91505092915050565b6000602082019050611b836000830184611a14565b92915050565b60008115159050919050565b611b9e81611b89565b82525050565b6000602082019050611bb96000830184611b95565b92915050565b600081519050919050565b600082825260208201905092915050565b6000819050602082019050919050565b611bf481611a02565b82525050565b6000611c068383611beb565b60208301905092915050565b6000602082019050919050565b6000611c2a82611bbf565b611c348185611bca565b9350611c3f83611bdb565b8060005b83811015611c70578151611c578882611bfa565b9750611c6283611c12565b925050600181019050611c43565b5085935050505092915050565b60006020820190508181036000830152611c978184611c1f565b905092915050565b6000602082019050611cb46000830184611a8b565b92915050565b611cc381611a02565b8114611cce57600080fd5b50565b600081359050611ce081611cba565b92915050565b600060208284031215611cfc57611cfb611b10565b5b6000611d0a84828501611cd1565b91505092915050565b7f4e487b7100000000000000000000000000000000000000000000000000000000600052602260045260246000fd5b60006002820490506001821680611d5a57607f821691505b602082108103611d6d57611d6c611d13565b5b50919050565b7fe58faae69c89e4b8ade5a596e88085e6898de883bde9a286e58f96e5a596e98760008201527f9100000000000000000000000000000000000000000000000000000000000000602082015250565b6000611dcf60218361193b565b9150611dda82611d73565b604082019050919050565b60006020820190508181036000830152611dfe81611dc2565b9050919050565b7fe5a596e98791e5bd93e5898de4b88de58fafe9a286e58f960000000000000000600082015250565b6000611e3b60188361193b565b9150611e4682611e05565b602082019050919050565b60006020820190508181036000830152611e6a81611e2e565b9050919050565b600081905092915050565b50565b6000611e8c600083611e71565b9150611e9782611e7c565b600082019050919050565b6000611ead82611e7f565b9150819050919050565b7fe5a596e98791e8bdace8b4a6e5a4b1e8b4a50000000000000000000000000000600082015250565b6000611eed60128361193b565b9150611ef882611eb7565b602082019050919050565b60006020820190508181036000830152611f1c81611ee0565b9050919050565b600081905092915050565b60008190508160005260206000209050919050565b60008154611f5081611d42565b611f5a8186611f23565b94506001821660008114611f755760018114611f8a57611fbd565b60ff1983168652811515820286019350611fbd565b611f9385611f2e565b60005b83811015611fb557815481890152600182019150602081019050611f96565b838801955050505b50505092915050565b6000611fd28284611f43565b915081905092915050565b7fe68abde5a596e69caae7bb93e69d9fefbc8ce4b88de883bde8b59ee58aa90000600082015250565b6000612013601e8361193b565b915061201e82611fdd565b602082019050919050565b6000602082019050818103600083015261204281612006565b9050919050565b7fe8b59ee58aa9e98791e9a29de99c80e5a4a7e4ba8e3000000000000000000000600082015250565b600061207f60168361193b565b915061208a82612049565b602082019050919050565b600060208201905081810360008301526120ae81612072565b9050919050565b7f4e487b7100000000000000000000000000000000000000000000000000000000600052601160045260246000fd5b60006120ef826118fc565b91506120fa836118fc565b9250828201905080821115612112576121116120b5565b5b92915050565b7fe5b7b2e5bc80e5a596e4b88de883bde4bfaee694b9e697b6e997b40000000000600082015250565b600061214e601b8361193b565b915061215982612118565b602082019050919050565b6000602082019050818103600083015261217d81612141565b9050919050565b7fe5bc80e5a596e697b6e997b4e5bf85e9a1bbe59ca8e69caae69da50000000000600082015250565b60006121ba601b8361193b565b91506121c582612184565b602082019050919050565b600060208201905081810360008301526121e9816121ad565b9050919050565b60006040820190506122056000830185611906565b6122126020830184611906565b9392505050565b7fe69caae588b0e5bc80e5a596e697b6e997b4efbc8ce697a0e6b395e5bc80e5a560008201527f9600000000000000000000000000000000000000000000000000000000000000602082015250565b600061227560218361193b565b915061228082612219565b604082019050919050565b600060208201905081810360008301526122a481612268565b9050919050565b7fe68abde5a596e69caae5bc80e694bee68896e5b7b2e5bc80e5a5960000000000600082015250565b60006122e1601b8361193b565b91506122ec826122ab565b602082019050919050565b60006020820190508181036000830152612310816122d4565b9050919050565b7fe68abde5a596e69caae7bb93e69d9fefbc8ce697a0e6b395e9878de7bdae0000600082015250565b600061234d601e8361193b565b915061235882612317565b602082019050919050565b6000602082019050818103600083015261237c81612340565b9050919050565b7f4e487b7100000000000000000000000000000000000000000000000000000000600052603260045260246000fd5b7fe5bd93e5898de68abde5a596e69caae5bc80e694bee58f82e4b88e0000000000600082015250565b60006123e8601b8361193b565b91506123f3826123b2565b602082019050919050565b60006020820190508181036000830152612417816123db565b9050919050565b7fe5b7b2e588b0e5bc80e5a596e697b6e997b4efbc8ce697a0e6b395e58f82e4b860008201527f8e00000000000000000000000000000000000000000000000000000000000000602082015250565b600061247a60218361193b565b91506124858261241e565b604082019050919050565b600060208201905081810360008301526124a98161246d565b9050919050565b7fe694afe4bb98e79a84e585a5e59cbae8b4b9e4b88de6ada3e7a1ae0000000000600082015250565b60006124e6601b8361193b565b91506124f1826124b0565b602082019050919050565b60006020820190508181036000830152612515816124d9565b9050919050565b7fe682a8e5b7b2e7bb8fe58f82e4b88ee8bf87e6ada4e6aca1e68abde5a5960000600082015250565b6000612552601e8361193b565b915061255d8261251c565b602082019050919050565b6000602082019050818103600083015261258181612545565b9050919050565b7fe5b7b2e7bb8fe5bc80e8bf87e5a596e4ba860000000000000000000000000000600082015250565b60006125be60128361193b565b91506125c982612588565b602082019050919050565b600060208201905081810360008301526125ed816125b1565b9050919050565b7fe6b2a1e69c89e58f82e4b88ee88085efbc8ce697a0e6b395e5bc80e5a5960000600082015250565b600061262a601e8361193b565b9150612635826125f4565b602082019050919050565b600060208201905081810360008301526126598161261d565b9050919050565b6000819050919050565b61267b612676826118fc565b612660565b82525050565b60008160601b9050919050565b600061269982612681565b9050919050565b60006126ab8261268e565b9050919050565b6126c36126be82611a02565b6126a0565b82525050565b60006126d5828761266a565b6020820191506126e5828661266a565b6020820191506126f5828561266a565b60208201915061270582846126b2565b60148201915081905095945050505050565b7f4e487b7100000000000000000000000000000000000000000000000000000000600052601260045260246000fd5b6000612751826118fc565b915061275c836118fc565b92508261276c5761276b612717565b5b82820690509291505056fea26469706673582212201b5d838816abb49317a6b0f9ff3c58d7ab9cf7f34a1b63dee4e9fe87502af47564736f6c634300081c0033a264697066735822122056b5b72a345d961b309bdcdc08d6b763530cedf0367862d3bb4df9dc7ea3cdcc64736f6c634300081c0033",
  "linkReferences": {},
  "deployedLinkReferences": {}
}